:020000040800F2
:100000009830002045010008E56000082D470008F1
:10001000455D0008D5300008D589000800000000C3
:10002000000000000000000000000000296D000832
:10003000F135000800000000856400085D0100083B
:100040005F0100085F0100085F0100085F01000810
:100050005F0100085F0100085F0100085F01000800
:100060005F0100085F0100085F0100085F010008F0
:100070005F0100085F010008A13300085F0100086C
:100080005F0100085F0100085F0100085F010008D0
:100090005F0100085F0100085F0100085F010008C0
:1000A0005F0100085F0100085F0100085F010008B0
:1000B00095710008897300085F0100085F0100085E
:1000C0005F0100085F0100085F0100085F01000890
:1000D0005F010008C98100085F0100085F01000896
:1000E0005F0100085F0100085F0100085F01000870
:1000F0005F0100085F0100085F0100085F01000860
:100100005F0100085F010008F97500085F01000841
:100110005F0100085F0100085F0100085F0100083F
:100120005F0100085F0100085F0100085F0100082F
:10013000DFF80CD000F05AFC00480047559E00083C
:10014000983000200648804706480047FEE7FEE753
:10015000FEE7FEE7FEE7FEE7FEE7FEE7FEE7FEE777
:10016000AD6E0008310100082DE9F05F0546002062
:1001700092469B4688460646814640241BE0284618
:1001800041464746224600F06EFB53465A46C01A87
:10019000914110D311461846224600F055FB2D1A06
:1001A00067EB01084F4622460120002100F04CFB7E
:1001B00017EB00094E41201EA4F10104DFDC484684
:1001C00031462A464346BDE8F09FF0B480EA01027A
:1001D000D40F4200B2EB410F02D20246084611464C
:1001E0004A0042D0C30DDDB2C1F3C752AD1A202D73
:1001F00035DAC1F3160141F4000204B15242C5F1EF
:10020000200602FA06F12A411044B3EBD05F23D056
:10021000C4B1012DA0EBC35009DCF0BC4FF000428B
:1002200002EAC352DBB200F5000000F047BB400019
:1002300000F1807000EBC350A0F1807040EAD170F3
:10024000490009E0490841EAC071A0EBC35000F53C
:100250000000400800EBC350F0BC00F026BB614238
:10026000012202EB4101001BF6E7F0BC704781F070
:100270000041AAE780F00040A7E780EA010210B53C
:1002800002F00043400022D04A001FD0010E01EBD3
:100290001261C0F35600C2F3560240F4000042F46B
:1002A0000002A0FB022000047F39140400D0401C8F
:1002B00050EA124001D44000491EC2B20C0604EBC1
:1002C000D010401C4008802A02D003E0002010BD5E
:1002D00020F00100002900DA0020184310BD30B4DE
:1002E00080EA010202F0004530F0004221F00040B7
:1002F00013D090B1C30DD40DC2F31601C0F3160094
:10030000E41A41F4000140F400027D34914201D32B
:10031000641C00E04900002C02DA30BC0020704769
:100320004FF400000023914201D3891A034340088F
:100330004FEA4101F7D151B1914202D14FF0004152
:1003400005E002D24FF0010101E06FF0010103EB83
:10035000C450284430BC00F0A8BA2DE9FE4F8046B6
:1003600081EA0300C00F0C46009021F0004123F009
:100370000045B8EB0200A94105D24046214690460F
:100380001C460B46024623F00040104347D0270D81
:10039000C7F30A00C3F30A510290401A01904028A3
:1003A0006BDAC3F3130040F4801B0098924620B12F
:1003B0000023D2EB030A63EB0B0B01985946C0F103
:1003C0004002504600F040FA06460D465046594657
:1003D000019A00F058FA10EB08006141002487EA06
:1003E000115284EAE7731A4340D0009A62B3019A2B
:1003F000012A4FEA075215DC001B61EB02014FF0A6
:10040000004202EA0752CDE90042001C41F580118A
:1004100032462B4600F09BFA03B0BDE8F08F404611
:100420002146F9E7001B61EB0201001C41F5801336
:1004300000185B412018A2F5001747EB030140EAC2
:10044000D570B6196D4111E06D084FEA360645EAE0
:10045000C0754FEA0752001B61EB0201001C41F519
:10046000801149084FEA30000019514132462B46AD
:1004700003B0BDE8F04F00F05BBA009801224000E5
:100480000023D0EB020263EBE073009821464FEAB1
:10049000E074B8EB000061EB0401E9E783F000438E
:1004A0005BE781F0004158E72DE9FE4F81EA030444
:1004B00004F0004421F0004100944FF0000B23F0C1
:1004C000004350EA01045ED052EA03045BD0C3F358
:1004D0000A54C1F30A552C44A4F2F3340194A0FB4E
:1004E0000254C1F3130141F48011C3F3130343F425
:1004F000801301FB024400FB034E840A970A44EA7E
:10050000815447EA8357A4FB076802958D0A05FBCF
:1005100007854FEA932C04FB0C542705029D4FEAF4
:10052000065847EA1637B5EB08056EEB070C870E41
:10053000920E47EA811742EA8312A7FB0201B6EB4B
:100540000B0164EB00042B0D43EA0C335E1844EB03
:100550001C50DA465146E7FB0201C5F313044FEA8B
:100560000B3343EA14534FEA0432019C43EA060377
:10057000A4F10C040294009CCDE900B400F0E7F96A
:1005800003B0BDE8F08F00200146F9E72DE9F04DFA
:1005900081EA030404F0004B21F0004514464FF0BB
:1005A000000A23F0004150EA050220D054EA01027B
:1005B0001DD0C5F30A570246C5F31303C1F3130058
:1005C000C1F30A5640F4801543F48013A7EB0608E4
:1005D000101BD64608F2FD3873EB050002D308F174
:1005E000010801E092185B41B8F1000F03DA002026
:1005F0000146BDE8F08D00204FF480110646844688
:100600000EE0171B73EB050705D3121B63EB050305
:1006100006434CEA010C49084FEA300092185B414E
:1006200050EA0107EDD152EA030012D082EA040039
:1006300083EA0501084305D0101BAB4106D2012215
:10064000002306E000224FF0004302E06FF00102B9
:1006500053101AEB06004CEB085110EB0A0041EB6B
:100660000B01BDE8F04D00F063B9C10F80EAE07006
:100670000844CA079623002100F020B996230022DF
:10068000114600F01BB930B40446962308002146F9
:1006900004D0B62330BC002200F010B9204600215F
:1006A000F8E70EB5C10F80EAE0700844CA070021E0
:1006B00040F233438DE80E000A460B4600F047F93E
:1006C00003B000BD0EB540F2334102910021CDE9E7
:1006D00000110A460B4600F03AF903B000BD0EB512
:1006E00040F2334202920022CDE90022134600F08C
:1006F0002EF903B000BD00F0004220F00040C10D13
:10070000C0F3160040F400007F2901DA0020704792
:10071000962903DCC1F19601C84001E09639884072
:10072000002AF4D04042704720F00040C10DC0F3D1
:10073000160040F400007F2901DA00207047962956
:1007400003DCC1F19601C840704796398840704774
:1007500070B5C1F30A5201F000450024C1F3130142
:1007600040F2FF3341F480119A4201DA002070BD5B
:1007700040F233439A42A2F2334203DC524200F089
:1007800072F800E090402C43F1D0404270BDC1F3BC
:100790000A5210B5C1F3130140F2FF3341F4801146
:1007A0009A4201DA002010BD40F233439A42A2F28D
:1007B000334203DC524200F056F810BD904010BDA9
:1007C00000F0004230F000400AD0C10D01F5607128
:1007D000C0F3160042EA0151C208400711437047B6
:1007E00000200146704701F0004330B421F0004181
:1007F00050EA010206D00A0DA2F56072C1F313019E
:10080000002A02DC30BC00207047440F44EAC104D7
:10081000C100E01830BC00EBC25000F046B8000048
:10082000002801DBC0F10040002901DBC1F10041DB
:1008300081427047002801DBC0F10040002901DB44
:10084000C1F1004188427047202A04DB203A00FAB7
:1008500002F1002070479140C2F1200320FA03F317
:10086000194390407047202A04DB203A21FA02F015
:100870000021704721FA02F3D040C2F120029140DA
:10088000084319467047202A06DBCB17203A41FA65
:1008900002F043EAE07306E041FA02F3D040C2F10D
:1008A000200291400843194670470029A8BF7047AD
:1008B000401C490008BF20F00100704710B4B0FA96
:1008C00080FC00FA0CF050EA010404BF10BC704731
:1008D00049B1CCF1200421FA04F411FA0CF118BF4B
:1008E000012121430843A3EB0C01CB1D4FEA00611A
:1008F0004FEA102042BF002010BC704700EBC350ED
:1009000010440029A4BF10BC7047401C490008BF18
:1009100020F0010010BC7047420005D0C0F3C75260
:100920005242914201DC0020704700EBC1507047F9
:1009300010B5141E73F1000408DA401C41F10001E7
:1009400092185B411A4301D120F0010010BD2DE93E
:10095000F04D92469B4611B1B1FA81F202E0B0FA35
:1009600080F220329046FFF76FFF04460F4640EAC0
:100970000A0041EA0B0153465A46084313D0114678
:1009800053EA010019D0C8F140025046FFF76BFF4F
:1009900005460E46504659464246FFF755FF084366
:1009A00005D0012004E020463946BDE8F08D002046
:1009B000054346EAE0762C4337430A986305E40A88
:1009C000A0EB08000022FD0A44EA47540A3002D591
:1009D00000200146E9E7010510196941DDE90845F4
:1009E00000196941BDE8F04DA2E70000064C074D33
:1009F00006E0E06840F0010394E8070098471034EF
:100A0000AC42F6D3FFF798FBA8A20008C8A20008E2
:100A1000F0B4002802DCF0BC00207047C0F3C751DE
:100A2000C0F3160040F40000CA0701D14000491E7F
:100A30003F2202EB6105002211464FF4000626FA20
:100A400001F31344D418844201D8001B1A46400015
:100A5000491C1729F3DD5100814202D24FF0FF31CA
:100A600000E0002102EBC550F0BCFFF71EBF70B5DF
:100A700021F0004303430CD0C1F30A550024D5EB09
:100A8000040564EB0403D617AD1AB34102DB002062
:100A9000014670BD201841EB025170BD70B58C1835
:100AA00010F8015B15F0070301D110F8013B2A1182
:100AB00006D110F8012B03E010F8016B01F8016B6F
:100AC0005B1EF9D12B0705D40023521E0DD401F86B
:100AD000013BFAE710F8013BCB1A921C03E013F834
:100AE000015B01F8015B521EF9D5A142D8D3002069
:100AF00070BD00002DE9F04F8FB0934A1169106965
:100B0000FFF7BBFB0746904AD168D068FFF7B5FBFB
:100B100080468D4A91689068FFF7AFFB8346414657
:100B2000FFF753FB05463946FFF74FFB064605F036
:100B3000ABFC0890844988680899FFF79EFB0E90EB
:100B40008149C8680899FFF798FB0D907E490869AC
:100B50000899FFF792FB0C907C4905A805F024FE4C
:100B600005AD7B490598086006984860079888603D
:100B7000084641680C98FFF780FB05467448816879
:100B80000D98FFF77AFB06462946FFF770FB0446EF
:100B90006F4881680E98FFF770FB05466C48016846
:100BA0000C98FFF76AFB06462946FFF760FB814673
:100BB000674801680D98FFF760FB05466448416887
:100BC0000E98FFF75AFB06462946FFF750FB824670
:100BD00060492046FFF751FB05465F4801682846FB
:100BE000FFF7F3FA5C4908605A494846FFF745FBAE
:100BF00005465A4801682846FFF7E7FA5749086052
:100C000054495046FFF739FB0546554801682846C8
:100C1000FFF7DBFA524908604F480068FFF7D0FD44
:100C2000CDE90401204607F0F3FE83464D49FFF766
:100C300024FB80462146FFF720FB0746FFF7C0FD57
:100C400005460E464049C86BFFF7BAFD074606F059
:100C500049F82A463346CDE90001FFF77EFBCDE98E
:100C60000201DDE90423FFF778FBCDE90601FFF778
:100C7000BAFD0B9039480068FFF7A2FDCDE90401E9
:100C8000484607F0C5FE83463649FFF7F6FA0646A2
:100C90004946FFF7F2FA0546FFF792FD07468846F8
:100CA0002949086CFFF78CFD054606F01BF83A460B
:100CB0004346CDE90001FFF750FBCDE90201DDE934
:100CC0000423FFF74AFBCDE90601FFF78CFD0A90EC
:100CD00023480068FFF774FDCDE90401504607F092
:100CE00097FE20490090FFF7C8FA51460190FFF7A0
:100CF000C4FA8346FFF764FDCDE902011249486C4E
:100D0000FFF75EFDCDE9000105F0ECFF0746DDE9E8
:100D10000223FFF722FB0546DDE90423FFF71DFB55
:100D2000CDE90601FFF75FFD09900F4800900748E5
:100D3000DDE909320B9905F00CFC044805F0CCFB09
:100D40000FB0BDE8F08F0000F4040020B0020020D6
:100D5000540A00206F12033AD4020020D802002067
:100D6000DC020020CDCC4C3F0AD7A33A2DE9F04F4E
:100D700087B000F025F98748FFF7BCFE8649854813
:100D800005F078FC84494868FFF71AFD064609F02B
:100D9000C9F80446FFF727FD05907F490868FFF76B
:100DA0000FFD064609F0BEF80446FFF71CFD06904D
:100DB00079494868FFF704FD064608F08DFE0446B1
:100DC000FFF711FD049074490868FFF7F9FC064627
:100DD00008F082FE0446FFF706FD03906F48C078D6
:100DE00000287DD16D484078002879D06C49B1F950
:100DF0000400FFF73AFC07460499FFF73EFA06465F
:100E00000699FFF73AFA04466549B1F90200FFF77F
:100E10002CFC81460699FFF730FA80460599FFF7CA
:100E20002CFA06465E49B1F90000FFF71EFC804629
:100E30000399FFF722FA07463146FFF7C6F9054640
:100E40002146FFF714FA83465549B1F90400FFF72C
:100E50000CFC06460599FFF710FA04465049B1F913
:100E60000200FFF702FC06460499FFF706FA054662
:100E70002146FFF7AAF902905846FFF7A1FCCDE9F9
:100E800000010298FFF79CFC8046DDE9002308F092
:100E900035FC064602F0AEFB81F000410446FFF748
:100EA000A2FC82463F48C0F800A03F49486C4FF082
:100EB0008041FFF7E2F905463C49FFF7DEF90446B9
:100EC000354881682046FFF780F933498860384902
:100ED0005046FFF7AFFC07D22F498868354900E03C
:100EE00032E0FFF79DFC0AD332495046FFF798FCE9
:100EF00019D2294988682E49FFF79CFC13D22E4944
:100F00005046FFF7BAF906462348806880F000454E
:100F10002A492846FFF7B1F904463146FFF755F94B
:100F20001D4988600FE024495046FFF7A6F90446A2
:100F3000194988682149FFF7A0F905462146FFF7BE
:100F400044F9154988600BE013498868FFF738FCBD
:100F5000064602F04FFB0446FFF745FC0E49886049
:100F60000D494868FFF72CFC064602F043FB044697
:100F7000FFF739FC084948600868FFF721FC06467E
:100F800002F038FB0446FFF72EFC0349086007B067
:100F9000BDE8F08FB0020020480A002020090020A0
:100FA000C0020020A8020020F40400200AD7A33ABF
:100FB0000000B4420000B4C2A69B443C91ED7C3FCB
:100FC0002DE9FF4104F03CFA4D4803F0E7FA4D49A2
:100FD000B1F90000FFF765FB06460F4605204A49B8
:100FE0004A4BCDE900304A4B4A4ACDE9021030461F
:100FF000394603F0ABFF0446FFF7F5FB4149886033
:10100000B1F90200FFF74DFB06460F4605203E49A9
:101010003E4BCDE900303E4B28333E4A2832CDE9E5
:1010200002103046394603F091FF0446FFF7DBFB20
:101030003449C860B1F90400FFF733FB06460F4698
:1010400005203149314BCDE90030314B5033314A25
:101050005032CDE902103046394603F077FF04469E
:10106000FFF7C1FB27490861C86DFFF7A9FB0746D9
:10107000294A2A4BFFF718FA0546FFF7B4FB044646
:10108000274A21462748006804F042F91D49C863F1
:101090000846C06B234908601A49086EFFF790FBA9
:1010A00007461D4A1D4BFFF7FFF90546FFF79BFB5F
:1010B00004461B4A21461C48006804F029F90146F1
:1010C00010480164006C184908600E49486EFFF72B
:1010D00077FB0746104A114BFFF7E6F90546FFF785
:1010E00082FB04460E4A21461048006804F010F9BD
:1010F000014604484164406C0C490860BDE8FF812A
:10110000C0020020F40400208002002058020020C9
:10111000D00900205809002030689DC8FE3F9F3F3D
:10112000CBA1C53EC8020020CC020020D002002086
:1011300000B58FB0FD480078FD49097890FBF1F2C9
:1011400001FB1201FA480078401E814203D10120C0
:10115000F8498873C873F5480078F749097890FB17
:10116000F1F201FB1201F4480078401E814202D1E5
:101170000120F0498870ED480078F049097890FB2B
:10118000F1F201FB1201ED480078401E814202D1CC
:101190000120E849C870E5480078E949097890FBE2
:1011A000F1F201FB1201E6480078401E814202D1B3
:1011B0000120E0494870DD480078E249097890FB59
:1011C000F1F201FB1201DF480078401E814202D19A
:1011D0000120D8498872D5480078DB49097890FB0E
:1011E000F1F201FB1201D8480078401E814202D181
:1011F0000120D0490873CD480078D449097890FB84
:10120000F1F201FB1201D1480078401E814202D167
:101210000120C8494873C5480078401CC34908707C
:10122000C4480079002856D00020C2490871C84837
:10123000D0F8C000C7490590FFF71FF80E90C448CA
:10124000D0F8BC00C4490590FFF717F80D90C048CE
:10125000D0F8B800BF490590FFF70FF80C90BC48D4
:10126000806FBC490590FFF708F80B90B848406FB5
:10127000B9490590FFF701F80A90B548006FB549E4
:101280000590FEF7FAFF0990B148006BB14905904F
:10129000FEF7F3FF0890AE48C06AAF490590FEF72D
:1012A000ECFF0790AA48806AAA490590FEF7E5FF7F
:1012B0000690DDE90B23DDE90D01CDE90223CDE93F
:1012C0000401DDE90901CDE90001012006A90EC9EB
:1012D00000F0FEFD19E297484079002856D0002022
:1012E000944948719A48D0F89C009A490590FEF7B5
:1012F000C4FF0E909648D0F8980097490590FEF7E5
:10130000BCFF0D909248D0F8940092490590FEF7EA
:10131000B4FF0C908E48406D8E490590FEF7ADFFEE
:101320000B908B48006D8C490590FEF7A6FF0A9044
:101330008748C06C87490590FEF79FFF0990844855
:10134000C06884490590FEF798FF0890804880683F
:1013500081490590FEF791FF07907D4840687D49DF
:101360000590FEF78AFF0690DDE90B23DDE90D10FD
:10137000CDE90223CDE90410DDE90901CDE9000141
:10138000022006A90EC900F0A3FDBEE169488079DC
:10139000002853D0002067498871704840686D4923
:1013A0000590FEF76AFF0E906C4880686A490590C8
:1013B000FEF763FF0D906948006866490590FEF7E7
:1013C0005CFF0C906648406862490590FEF755FF47
:1013D0000B906348806860490590FEF74EFF0A90C5
:1013E0005F4800685B490590FEF747FF09905D483C
:1013F000406858490590FEF740FF089059488068BA
:1014000055490590FEF739FF079056480068514945
:101410000590FEF732FF0690DDE90B23DDE90D10A4
:10142000CDE90223CDE90410DDE90901CDE9000190
:10143000032006A90EC900F04BFD66E13D48C079C6
:1014400020B300203B49C8714748406841490B9090
:10145000FEF713FF0E90444880683F490B90FEF75B
:101460000CFF0D90404800683A490B90FEF705FFCD
:101470000C90002002900390049005900090019041
:1014800004200CA90EC900F023FD3EE12948007894
:1014900060B10020274908704FF4C87364224FF4EC
:1014A00096710090042001F063F82EE12148407B02
:1014B00018B100201F49487327E11E48007BB8B1CE
:1014C00000201C4908730090019002900390274867
:1014D000C0880E90254880880D90244840880C9044
:1014E000224800880B900CA90EC900F05BFC0CE1AF
:1014F0001048807AF0B300200E49887200211C4801
:101500008089CDE902010491194805914089184963
:101510000989CDE90010164840880E9014480088CB
:101520000D901348C0880C90114824E090040020CE
:1015300091040020BC0D00209204002093040020A0
:1015400094040020950400209604002097040020B5
:10155000600B00200000C84200007A44B00D00205B
:10156000600C00208C0C0020980C0020DC03002074
:10157000C404002006E080880B900CA90EC900F07E
:1015800087FDC2E062484078F8B1002060494870A9
:10159000604961480068FEF7A2FE0D90FFF7ABF8C6
:1015A0000E905E4840795D49C97CCDE900105C48E9
:1015B00080680D905A4800680C90594840680B901C
:1015C0000CA90EC900F032FF9FE05148807870B33B
:1015D00000204F498870534803685348B0F904000D
:1015E0005149B1F90210504AB2F90020CDE9040383
:1015F000CDE902214D48B0F938004C49B1F9361017
:10160000CDE900104948B0F934000E904748B0F9D0
:1016100004000D904548B0F902000C904348B0F921
:1016200000000B900CA90EC900F0E4FD6DE0FFE78F
:101630003748C07870B100203549C8703549364800
:101640000068FEF74CFE01460E903948006800F035
:101650008FFE5AE02E48807B60B300202C498873AF
:101660003448C06A33498A6A496A324B1B6ACDE9F9
:101670000531CDE907202F48C0692E4989692D4AD7
:1016800052692C4B1B69CDE90132CDE90310294881
:10169000C0680090274880680E90264840680D90EA
:1016A000244800680C9001460120DDE90D2300F07C
:1016B000C1FF2AE01648C07B38B300201449C87324
:1016C0001D48816A426A006A1B4BDB69CDE905301F
:1016D000CDE90721184881694069174A1269164BFC
:1016E000DB68CDE90132CDE9030113488068009041
:1016F000114840680E90104800680D9002460F484F
:101700000E9B0168022000F095FF0FB000BD0000A5
:10171000BC0D0020000020412404002020090020EE
:10172000480A002090000020C0020020F40400209D
:101730003C0400202C0E0020600E002088040020B5
:101740002DE9F047044689464FF0000A002005E0E5
:10175000215C514401F0FF0A411CC8B2A9F101010A
:101760008142F5DC04EB090010F8010C504501D072
:10177000BDE8F0872078AA2802D16078AF2800D091
:10178000F6E7A078012817D12079012801D1FE4978
:10179000C8712079022802D10120FB498872207982
:1017A000032803D10120F849C871887220790428E0
:1017B00002D10120F4490872A07802280FD12079C3
:1017C000012806D1F149087148718871C871087201
:1017D00048722079A02802D10120EC490870A07835
:1017E00010287DD12179090209B2627941EA02000B
:1017F000FEF757FF0746E64AE64BFEF755FE05465D
:10180000FEF7F1FFE4498862A179090209B2E279A1
:1018100041EA0200FEF745FF0746E04AE04BFEF7CB
:1018200043FE0546FEF7DFFF0146DB48C162217A31
:10183000090209B2627A41EA0200FEF732FF074666
:10184000D34AD44BFEF730FE0546FEF7CCFF0146E7
:10185000D1480163A17A090209B2E27A41EA0200A1
:10186000FEF71FFF0746CA4ACA4BFEF71DFE054694
:10187000FEF7B9FFC8490867217B090209B2627BFC
:1018800041EA0200FEF70DFF0746C44AC44BFEF7CB
:101890000BFE0546FEF7A7FF0146BF484167A17B47
:1018A000090209B2E27B41EA0200FEF7FAFE0746AE
:1018B000B74AB84BFEF7F8FD0546FEF794FF014620
:1018C000B5488167217C090209B2627C41EA0200C5
:1018D000FEF7E7FE0746AE4AAE4BFEF7E5FD00E039
:1018E00034E00546FEF77FFFAB49C1F8B800A17CA4
:1018F000090209B2E27C41EA0200FEF7D2FE074685
:10190000A64AA74BFEF7D0FD0546FEF76CFF014641
:10191000A148C0F8BC10217D090209B2627D41EAEC
:101920000200FEF7BEFE0746994A9A4BFEF7BCFD41
:101930000546FEF758FF01469748C0F8C010A0784A
:10194000514600F0D5F901208F49C872A0781128BE
:101950007DD12179090209B2627941EA0200FEF7DC
:10196000A0FE07468A4A8B4BFEF79EFD0546FEF712
:101970003AFF89494860A179090209B2E27941EA4E
:101980000200FEF78EFE0746844A854BFEF78CFD6B
:101990000546FEF728FF80498860217A090209B2CE
:1019A000627A41EA0200FEF77CFE0746784A794BEC
:1019B000FEF77AFD0546FEF716FF7749C860A17A63
:1019C000090209B2E27A41EA0200FEF76AFE07461E
:1019D0006F4A704BFEF768FD0546FEF704FF6E493F
:1019E000C864217B090209B2627B41EA0200FEF76A
:1019F00058FE0746694A6A4BFEF756FD0546FEF754
:101A0000F2FE65490865A17B090209B2E27B41EA61
:101A10000200FEF746FE07465D4A5E4BFEF744FDB8
:101A20000546FEF7E0FE5C494865217C090209B2E3
:101A3000627C41EA0200FEF734FE0746544A554BE9
:101A4000FEF732FD0546FEF7CEFE534900E02EE0DC
:101A5000C1F89400A17C090209B2E27C41EA0200CB
:101A6000FEF71FFE07464D4A4D4BFEF71DFD05468E
:101A7000FEF7B9FE4849C1F89800217D090209B274
:101A8000627D41EA0200FEF70CFE0746404A414BE8
:101A9000FEF70AFD0546FEF7A6FE3F49C1F89C0089
:101AA000A078514600F024F901203749C872A07887
:101AB000122868D12179090209B2627941EA02004B
:101AC000FEF7EFFD0546324A324BFEF7EDFC0746C6
:101AD000FEF789FE33490860A179090209B2E2796B
:101AE00041EA0200FEF7DDFD05462C4A2C4BFEF7CD
:101AF000DBFC0746FEF777FE2A498860217A090257
:101B000009B2627A41EA0200FEF7CBFD0546204A9F
:101B1000204BFEF7C9FC0746FEF765FE21494860E9
:101B2000A17A090209B2E27A41EA0200FEF7B9FDA0
:101B30000746174A174BFEF7B7FC0546FEF753FE5C
:101B400019490860217B090209B2627B41EA02005F
:101B5000FEF7A7FD0546114A114BFEF7A5FC074607
:101B6000FEF741FE10498860A17B090209B2E27BC1
:101B700041EA0200FEF795FD0546054A054BFEF7D2
:101B800093FC074612E052E020090020BC0D002023
:101B90007B14AE47E17A843F600B0020FCA9F1D2B0
:101BA0004D62503F8C0C0020600C0020FEF71BFEA5
:101BB00047494860217C090209B2627C41EA02007F
:101BC000FEF76FFD0546434A434BFEF76DFC0746A3
:101BD000FEF709FE41490860A17C090209B2E27CD6
:101BE00041EA0200FEF75DFD07463D4A3D4BFEF728
:101BF0005BFC0546FEF7F7FD38498860217D090248
:101C000009B2627D41EA0200FEF74BFD0546314A0A
:101C1000314BFEF749FC0746FEF7E5FD2F494860CA
:101C2000A078514600F064F801202F49C872A078CE
:101C300013283CD12179090209B2627941EA0200F4
:101C4000FEF72FFD0546234A234BFEF72DFC0746E2
:101C5000FEF7C9FD25490860A179090209B2E279B8
:101C600041EA0200FEF71DFD05461D4A1D4BFEF729
:101C70001BFC0746FEF7B7FD1C498860217A090264
:101C800009B2627A41EA0200FEF70BFD0546114AED
:101C9000114BFEF709FC0746FEF7A5FD1349486006
:101CA000A078514600F024F801200F49C872A078AE
:101CB000142803D1A078514600F01AF8A07815280E
:101CC00003D1A078514600F013F800BF50E50000A2
:101CD000600C00207B14AE47E17A843FB00D0020F9
:101CE000FCA9F1D24D62503F20090020980C002041
:101CF00070B504460D46AA20144908704870EF20BC
:101D000088700220C87008460471457100260020C2
:101D100005E00E49095C3144CEB2411CC8B2062828
:101D2000F7DB0A4886710021094801F053FB0A20BD
:101D300007F066FF0020074908700721034800F0FC
:101D40000BF8052007F05CFF70BD0000CC0D0020F3
:101D5000440002403003002070B504460D46294679
:101D6000204606F039FE0D4800780A2810DB0C48A2
:101D70000078012803DB00200949087004E00848C6
:101D80000078401C0649087000200449087004E0EF
:101D900002480078401C0149087070BD980400207A
:101DA000990400207FB50024AA222146641C4748DC
:101DB00042542146641C425406222146641C42546B
:101DC00000222146641C42549DF801202146641CD7
:101DD00042549DF800202146641C42549DF8052081
:101DE0002146641C42549DF804202046611CCCB25C
:101DF00036490A549DF809202046611CCCB233496B
:101E00000A549DF808202046611CCCB22F490A5480
:101E10009DF80D202046611CCCB22C490A549DF837
:101E20000C202146601CC4B2284842549DF8212051
:101E30002046611CCCB225490A549DF8202020463A
:101E4000611CCCB221490A549DF825202046611C12
:101E5000CCB21E490A549DF824202046611CCCB205
:101E60001A490A549DF829202046611CCCB2174912
:101E70000A549DF828202046611CCCB213490A540C
:101E80009DF82D202046611CCCB210490A549DF8C3
:101E90002C202046611CCCB20C490A54201FC8706B
:101EA0000025002005E00949095C2944CDB2411C08
:101EB000C8B2A042F7DB2046611CCCB203490D54E6
:101EC00021460248FFF748FF7FBD0000CC0D0020EF
:101ED0002DE9F84F05460E4617469846DDE90AAB50
:101EE0000024AA222146641C684842542146641CEE
:101EF000425405F10F00C2B22146641C63484254AB
:101F000000222146641C42543046FEF7F4FB00B226
:101F100000909DF801202146641C5C4842549DF8C5
:101F200000202146641C42543846FEF7E4FB00B210
:101F300000909DF801202146641C544842549DF8AD
:101F400000202046611CCCB250490A544046FEF79E
:101F5000D2FB00B200909DF801202046611CCCB25B
:101F60004A490A549DF800202046611CCCB24749DA
:101F70000A545046FEF7BFFB00B200909DF80120C6
:101F80002046611CCCB241490A549DF800202046ED
:101F9000611CCCB23D490A545846FEF7ACFB00B276
:101FA00000909DF801202046611CCCB237490A54AC
:101FB0009DF800202046611CCCB234490A540C988C
:101FC000FEF799FB00B200909DF801202046611CAD
:101FD000CCB22E490A549DF800202146601CC4B2A0
:101FE0002A4842540D98FEF786FB00B200909DF8F7
:101FF00001202046611CCCB224490A549DF80020DF
:102000002046611CCCB221490A540E98FEF773FB9E
:1020100000B200909DF801202046611CCCB21B4903
:102020000A549DF800202046611CCCB217490A547E
:102030000F98FEF760FB00B200909DF8012020464B
:10204000611CCCB211490A549DF800202046611C45
:10205000CCB20E490A54201FC8704FF0000900206E
:1020600006E00A49095C494401F0FF09411CC8B275
:10207000A042F6DB2046611CCCB2044901F8009076
:1020800021460248FFF768FEBDE8F88FCC0D00201E
:102090007FB50024AA222146641C5548425421469B
:1020A000641C425403222146641C425400222146EF
:1020B000641C42549DF801202146641C42549DF842
:1020C00000202146641C42549DF805202146641CD2
:1020D00042549DF804202046611CCCB244490A5465
:1020E0009DF809202046611CCCB241490A549DF854
:1020F00008202046611CCCB23D490A549DF80D20B1
:102100002046611CCCB23A490A549DF80C20204666
:10211000611CCCB236490A549DF821202046611C2E
:10212000CCB233490A549DF820202146601CC4B229
:102130002F4842549DF825202046611CCCB22C49E2
:102140000A549DF824202046611CCCB228490A5428
:102150009DF829202046611CCCB225490A549DF8DF
:1021600028202046611CCCB221490A549DF82D201C
:102170002046611CCCB21E490A549DF82C202046F2
:10218000611CCCB21A490A549DF831202046611CCA
:10219000CCB217490A549DF830202046611CCCB2BD
:1021A00013490A549DF835202046611CCCB21049D1
:1021B0000A549DF834202046611CCCB20C490A54C4
:1021C000201FC8700025002005E00949095C29444A
:1021D000CDB2411CC8B2A042F7DB2046611CCCB294
:1021E00003490D5421460248FFF7B6FD7FBD0000AC
:1021F000CC0D00202DE9F84F05460E4617469846AF
:10220000DDE90AAB0024AA222146641C5748425447
:102210002146641C425402222146641C425400227E
:102220002146641C425400959DF801202146641CFF
:1022300042549DF800202146641C425400969DF8AB
:1022400001202146641C42549DF800202046611C58
:10225000CCB246490A5400979DF801202046611CE3
:10226000CCB242490A549DF800202046611CCCB2F1
:102270003E490A54CDF800809DF801202046611C9B
:10228000CCB23A490A549DF800202046611CCCB2D9
:1022900036490A54CDF800A09DF801202046611C63
:1022A000CCB232490A549DF800202146601CC4B2C9
:1022B0002E484254CDF800B09DF801202046611C04
:1022C000CCB22A490A549DF800202146601CC4B2B1
:1022D000264842540C9800909DF801202046611C2D
:1022E000CCB222490A549DF800202046611CCCB291
:1022F0001E490A540D9800909DF801202046611C4B
:10230000CCB21A490A549DF800202046611CCCB278
:1023100016490A540E9800909DF801202146601C31
:10232000C4B2124842549DF800202046611CCCB231
:102330000E490A54201FC8704FF00009002006E023
:102340000A49095C494401F0FF09411CC8B2A04296
:10235000F6DB2046611CCCB2044901F8009021460E
:102360000248FFF7F9FCBDE8F88F0000CC0D002013
:102370002DE9FC4107460D460024AA222146641C93
:10238000294842542146641C425407222146641CB9
:10239000425400222146641C42543846FEF7ABF9F1
:1023A00000909DF803202146641C1F4842549DF86C
:1023B00002202146641C42549DF801202146641CE1
:1023C00042549DF800202046611CCCB216490A54A4
:1023D0002846FEF790F900B201909DF805202046AE
:1023E000611CCCB210490A549DF804202046611C9F
:1023F000CCB20D490A54201FC8700026002005E009
:102400000949095C3144CEB2411CC8B2A042F7DB95
:102410002046611CCCB204490E5421460248FFF705
:102420009BFCBDE8FC810000CC0D00202DE9FE4F97
:1024300081460D4616461F46DDE90CAB0024019788
:10244000AA222146641C484842542146641C425436
:1024500001222146641C425400222146641C42543D
:1024600042494846FDF709FF0090FEF744F900B2E3
:1024700002909DF809202146641C3B4842549DF877
:1024800008202146641C425438492846FDF7F5FED1
:102490000090FEF730F900B202909DF80920214625
:1024A000641C314842549DF808202046611CCCB27F
:1024B0002D490A542D493046FDF7DFFE0090FEF706
:1024C0001AF900B202909DF809202046611CCCB296
:1024D00025490A549DF808202046611CCCB22249A7
:1024E0000A549DF807202046611CCCB21E490A54AC
:1024F0009DF806202046611CCCB21B490A549DF869
:1025000005202046611CCCB217490A549DF80420CE
:102510002046611CCCB214490A542046611CCCB23E
:10252000114901F800A02046611CCCB20E4901F807
:1025300000B0201FC8704FF00008002006E00A49D4
:10254000095C414401F0FF08411CC8B2A042F6DB1F
:102550002046611CCCB2044901F8008021460248A3
:10256000FFF7FAFBBDE8FE8FCC0D00200000C8424B
:102570007FB505460024AA222146641C2C484254FB
:102580002146641C425400222146641C42542146C8
:10259000641C42542146641C45549DF80520214684
:1025A000641C42549DF804202146641C42549DF84A
:1025B00009202046611CCCB21D490A549DF8082010
:1025C0002046611CCCB21A490A549DF80D202046C1
:1025D000611CCCB216490A549DF80C202046611C9F
:1025E000CCB213490A549DF821202046611CCCB27C
:1025F0000F490A549DF820202046611CCCB20C499A
:102600000A54201FC8700026002005E00849095C14
:102610003144CEB2411CC8B2A042F7DB2046611C57
:10262000CCB203490E5421460148FFF795FB7FBD0C
:10263000CC0D00202DE9F84F06460F4690469946EE
:10264000DDE90AAB0024AA222146641CD148425489
:102650002146641C425406F1F000C2B22146641CBB
:10266000CC48425400222146641C42543846FEF7AE
:1026700042F800909DF803202146641CC54842544E
:102680009DF802202146641C42549DF801202146F9
:10269000641C42549DF800202046611CCCB2BD4908
:1026A0000A544046FEF727F800909DF80320204684
:1026B000611CCCB2B7490A549DF802202046611C27
:1026C000CCB2B4490A549DF801202046611CCCB21A
:1026D000B0490A549DF800202046611CCCB2AD4997
:1026E0000A544846FEF707F800909DF8032020465C
:1026F000611CCCB2A7490A549DF802202046611CF7
:10270000CCB2A4490A549DF801202046611CCCB2E9
:10271000A0490A549DF800202046611CCCB29D4976
:102720000A545046FDF7E7FF00909DF8032020462D
:10273000611CCCB297490A549DF802202046611CC6
:10274000CCB294490A549DF801202046611CCCB2B9
:1027500090490A549DF800202046611CCCB28D4956
:102760000A545846FDF7C7FF00909DF80320204605
:10277000611CCCB287490A549DF802202046611C96
:10278000CCB284490A549DF801202046611CCCB289
:1027900080490A549DF800202046611CCCB27D4936
:1027A0000A540C98FDF7A7FF00909DF803202046DF
:1027B000611CCCB277490A549DF802202046611C66
:1027C000CCB274490A549DF801202046611CCCB259
:1027D00070490A549DF800202146601CC4B26D481F
:1027E00042540D98FDF787FF00909DF80320204686
:1027F000611CCCB267490A549DF802202046611C36
:10280000CCB264490A549DF801202046611CCCB228
:1028100060490A549DF800202046611CCCB25D49F5
:102820000A540E98FDF767FF00909DF8032020469C
:10283000611CCCB257490A549DF802202046611C05
:10284000CCB254490A549DF801202046611CCCB2F8
:1028500050490A549DF800202046611CCCB24D49D5
:102860000A540F98FDF747FF00909DF8032020467B
:10287000611CCCB247490A549DF802202046611CD5
:10288000CCB244490A549DF801202046611CCCB2C8
:1028900040490A549DF800202046611CCCB23D49B5
:1028A0000A541098FDF727FF00909DF8032020465A
:1028B000611CCCB237490A549DF802202046611CA5
:1028C000CCB234490A549DF801202046611CCCB298
:1028D00030490A549DF800202046611CCCB22D4995
:1028E0000A541198FDF707FF00909DF80320204639
:1028F000611CCCB227490A549DF802202046611C75
:10290000CCB224490A549DF801202046611CCCB267
:1029100020490A549DF800202046611CCCB21D4974
:102920000A541298FDF7E7FE00909DF80320204618
:10293000611CCCB217490A549DF802202046611C44
:10294000CCB214490A549DF801202046611CCCB237
:1029500010490A549DF800202046611CCCB20D4954
:102960000A54201FC8700025002005E00949095CB1
:102970002944CDB2411CC8B2A042F7DB2046611CFD
:10298000CCB204490D5421460248FFF7E5F9BDE8F1
:10299000F88F0000CC0D002010B509480078012800
:1029A00004D100200649087001F07AFC0548C07B7C
:1029B000012804D100200349C87305F0FBFF10BDB6
:1029C000FC030020200900202DE9FE4F9A4A116CDB
:1029D0009A4A506AFDF74BFC0290974AD16B974A8E
:1029E000D06EFDF744FC0190934A516C934AD2F8A3
:1029F000B400FDF73CFC00909049486B0299FDF74C
:102A0000E4FB01468D4841630146C86F0199FDF71B
:102A1000DCFB01468948C1670146D1F8C400009932
:102A2000FDF7D3FB01468548C0F8C4100146844A2F
:102A3000486B844907F09EF801468048416301468F
:102A40007F4AC86F7F4907F095F801467B48C16708
:102A500001467B4AD1F8C4007A4907F08BF8014659
:102A60007648C0F8C4100146886A0299FDF705FC53
:102A700001467248C1630146086F0199FDF7FDFBED
:102A800001466E48C0F884100146D1F8B80000999C
:102A9000FDF7F3FB01466948C0F8CC100246516BC4
:102AA000D06AFDF7EAFB0146644801640246D16F33
:102AB000506FFDF7E2FB01466048C0F888100246FF
:102AC000D2F8C410D2F8BC00FDF7D7FB01465B4832
:102AD000C0F8D010584A116CD06CFDF7C8FB054601
:102AE0005648016B2846FDF7C8FB04465649FDF7DA
:102AF000C4FB0146514841644F4AD16B906CFDF7CD
:102B0000B6FB05464D48816F2846FDF7B6FB0446E7
:102B10004D49FDF7B2FB01464848C0F88C10464AC3
:102B2000516C106DFDF7A3FB05464448D0F8C0106A
:102B30002846FDF7A2FB04464349FDF79EFB0146EC
:102B40003E48C0F8D4103C48016CC164C16B81643C
:102B5000416C0165394A116CD06BFDF736FB0446B8
:102B60003648416C2046FDF730FB0146334881640E
:102B70000246D2F88810D2F88400FDF726FB0446FE
:102B80002E48D0F88C102046FDF71FFB01462B483D
:102B9000C0F890100246D2F8D410D2F8CC00FDF75D
:102BA00014FB01462548C0F8D8100146486A4FF08A
:102BB0008041FDF794FB8246FDF702FE06460F4674
:102BC0001E49886CFDF7FCFD8246204A204BFDF72C
:102BD0006BFC804632463B46FDF7BFFB0446FDF7E3
:102BE00002FE0146154881640146C86E4FF08041DF
:102BF000FDF775FB8046FDF7E3FD04460D460F49E2
:102C0000D1F89000FDF7DCFD8046104A104BFDF72F
:102C10004BFC064622462B46FDF79FFB8246FDF7FE
:102C2000E2FD01460548C0F89010D0F8D810C0F871
:102C3000D810BDE8FE8F0000F4040020600B0020D7
:102C40000000A0C10000A041000004429A99999997
:102C50009999E93F2DE9F04704460D4681492846F8
:102C6000FDF705FB8046804907F046F907467F4996
:102C7000FDF703FB06467E49FDF731FB7D49086001
:102C80007D497C480068FDF7CBFD01D27A4809E018
:102C9000764978480068FDF7CDFD01D2734801E020
:102CA0007448006873490860744975480068FDF706
:102CB000C1FD09D200216F480068FDF7BBFD12D2AB
:102CC00000206C4908600EE06E496D480068FDF711
:102CD000A7FD08D2002167480068FDF7A1FD02D2D8
:102CE000002064490860634801682046FDF7C5FA82
:102CF0000646634801683046FDF767FA6049086098
:102D0000614801685E480068FDF7B1FA06465F4811
:102D100001683046FDF7B1FA5D4908600846006871
:102D20005C4948615A4A1168584A9068FDF7A5FA0B
:102D300007462146FDF7A1FA06465548C1683046C8
:102D4000FDF743FA5249C8605348006880F00047D5
:102D500046493846FDF791FA06464D48C168304667
:102D6000FDF768FD08D24C48006880F000463F49F6
:102D70003046FDF782FA13E03C4947480068FDF70A
:102D80007CFA06464248C1683046FDF749FD05D247
:102D9000364941480068FDF770FA01E03C48C068D8
:102DA0003B49C8603B498861394A51681068FDF762
:102DB0005EFA06463949FDF760FA3649C861344A79
:102DC00051681068FDF753FA81463449FDF755FA0A
:102DD00007463348006880F0004A21465046FDF718
:102DE0004CFA81462F49FDF748FA80463946FDF7EF
:102DF000ECF90646254841683046FDF73EFA24497D
:102E000088600846806823490862214AD1681068B2
:102E1000FDF7DBF906461E4881683046FDF7D5F917
:102E20001B49086108691449FDF7FAFC01D21248F0
:102E300009E0174908690D49FDF7FCFC01D20B4870
:102E400001E0134800691249086108460069164903
:102E50000860104948620E4800680D494860BDE8A6
:102E6000F08700000000FA430000C84200009643CB
:102E70000000C84314040020000096C30000FA4577
:102E80001804002000007A4448040020B00D0020FF
:102E90009C0D0020600E0020E8030020CDCCCC3E2D
:102EA0002C0400209A99193F500400200448054939
:102EB0000860002088604FF07F5048607047000035
:102EC0009A99193EB00D00202DE9F05F044676482E
:102ED00005210268022003F0A5F88146734948469F
:102EE000FDF79EFC42D2724801684846FDF7BFF9E3
:102EF00006460021FDF79EFC05D26D480168484654
:102F0000FDF7B5F906E06A4801684846FDF7AFF9F4
:102F100080F0004005466749FDF782FC27D26448EF
:102F200001684846FDF7A3F9824663492046FDF74C
:102F3000A4F9834659464FF07E50FDF7D0F98046FC
:102F40004FF07E51FDF741F9074639464FF07E506C
:102F5000FDF7C5F906465146FDF78FF90546544879
:102F600001682846FDF731F9514908606AE0504888
:102F700001684846FDF77BF906460021FDF75AFC3B
:102F800005D24B4801684846FDF771F906E048480C
:102F900001684846FDF76BF980F000400546474957
:102FA000FDF73EFC27D2424801684846FDF75FF92D
:102FB000824643492046FDF760F9834659464FF063
:102FC0007E50FDF78CF980464FF07E51FDF7FDF8FD
:102FD000074639464FF07E50FDF781F906465146C7
:102FE000FDF74BF90546324801682846FDF7EDF834
:102FF0002F49086026E02E4801684846FDF737F95A
:10300000824630492046FDF738F9834659464FF04D
:103010007E50FDF764F980464FF07E51FDF7D5F8FC
:10302000074639464FF07E50FDF759F9064651469E
:10303000FDF723F905461E4801682846FDF7C5F847
:103040001B4908601A4800681F4988600846C16823
:103050001E480068FDF70BF9824619492046FDF726
:103060000CF9834659464FF07E50FDF738F98046FB
:103070004FF07E51FDF7A9F8074639464FF07E50D4
:10308000FDF72DF905465146FDF7F7F806460E48BF
:10309000C1683046FDF799F80B49C8600C480068D4
:1030A0000861BDE8F09F00003C0400200000FA45E4
:1030B000480400200000C842C3F5C8400000FA439D
:1030C000C3F54840C3F5C83F600E0020E40000206F
:1030D0005C04002000BFFEE72DE9FF416048007856
:1030E00002287DDB5F4A11680098FDF7C0F80646AC
:1030F0005B4908693146FDF768F859490861084697
:10310000406980F000450A46516910692A4606F078
:1031100031FD534908610A4611699068FDF7ADF821
:1031200005464F4948683146FDF7A7F880462946CD
:10313000FDF74BF84A4948624A4A51680198FDF741
:1031400096F807464649886D3946FDF73EF84449EA
:1031500088650846C06D80F000450A46D16D906DC7
:103160002A4606F007FD3E4988650A46916D106DB6
:10317000FDF783F805463A49C86C3946FDF77DF8F6
:1031800080462946FDF721F83549C866354A9168D9
:103190000298FDF76CF805463349FDF74BFB09D360
:1031A000304A91680298FDF762F805462F49FDF70D
:1031B00037FB36D200210298FDF73CFB16D2294995
:1031C00088680021FDF72CFB10D227490298FDF7F3
:1031D0004EF80546234881682448FDF748F800E08A
:1031E00030E080462946FCF7F0FF044600210298B3
:1031F000FDF716FB1BD21B4988680021FDF71AFB5F
:1032000015D219490298FCF7E0FF05461548816878
:103210001548FDF72CF880462946FCF7D6FF0446F2
:1032200005E0104A91680298FDF721F804460C4920
:10323000D1F894002146FDF720F80949C1F8B400FF
:103240000020087006480078401C05490870FFF708
:10325000BBFB074804F0D6FD02F076FDBDE8FF8118
:10326000600B0020480A002000003443000034C3F3
:103270000AD7233B2DE9F04100244048B0F9120061
:1032800040F2EF51091A3D48B0F91800C0EBC000F8
:10329000143091FBF0F52846FDF7E7F9384908604E
:1032A0003648B0F91000A0F2EF503449B1F91810C7
:1032B000C1EBC101143190FBF1F52846FDF7D5F9BA
:1032C0002F4948602D48B0F91400B0F5966F0BDD1A
:1032D0002C48807901280ED001202A4988712A487B
:1032E00080682749886006E00020264988712648C2
:1032F0008068234988602148B0F9160040F20D61CA
:10330000884205DC1D48B0F91600B0F5BA6F32DC12
:103310001A48C08A40F2EF51081A04B22046FDF75D
:10332000A4F907461949FCF7DAFF06461849FCF7E5
:10333000A4FF0546124881682846FCF746FF10495D
:10334000886088681349FDF775FA07D20C498868C8
:103350001149FCF78CFF0A4988600CE0084988682D
:103360000E49FDF75DFA06D2054988680A49FCF75F
:103370002CFF03498860BDE8F0810000940800201C
:103380003C0C002020090020480A0020000048438F
:10339000CDCCCC3D000034430000B443000034C326
:1033A00010B54FF4005000F007F8002001490870F4
:1033B00010BD00003003002000F0805111B103491E
:1033C000086001E0024948607047000004040240C0
:1033D0000000024021B1026842F00102026004E0F4
:1033E00002684FF6FE731A400260704701684FF69C
:1033F000FE72114001600021016041608160C16086
:103400004B49884208D14A490839496841F00F01BF
:10341000474A083A51608AE045491431884208D148
:1034200043490839496841F0F001414A083A51607E
:103430007DE03F492831884208D13D490839496833
:1034400041F470613A4A083A516070E038493C31C1
:10345000884208D136490839496841F47041344AF4
:10346000083A516063E032495031884208D130490E
:103470000839496841F470212D4A083A516056E0F4
:103480002B496431884208D129490839496841F4F7
:103490007001274A083A516049E02549783188424D
:1034A00008D123490839496841F07061204A083A37
:1034B00051603CE01F49884206D1011F096841F074
:1034C0000F01021F116032E01A491431884208D1FD
:1034D0001849091F096841F0F001164A121F1160CE
:1034E00025E014492831884208D11249091F09688A
:1034F00041F470610F4A121F116018E00D493C3110
:10350000884208D10B49091F096841F47041094AF2
:10351000121F11600BE007495031884207D105495D
:10352000091F096841F47021024A121F1160704797
:1035300008000240080402401AB103680B4303600C
:1035400002E003688B430360704710B500220268F5
:1035500047F6F0739A430C6A8B6823430C69234344
:103560004C6923438C692343CC6923434C6A23432E
:103570008C6A23431A430260CB6843600B68836004
:103580004B68C36010BD000000B58BB01448FFF756
:103590002DFF144800901448019010200290134809
:1035A0000078039000200490802005900020069071
:1035B000079008904FF48050099000200A906946C7
:1035C0000748FFF7C2FF012202210548FFF7B4FFB9
:1035D000012280210348001F04F03BFE0BB000BD18
:1035E0004400024004380140190000201E00002061
:1035F000704700002DE9F04104460D464FF0C042EF
:10360000054B20462946FCF7C1FF06460022034B26
:10361000FCF74AFFBDE8F081FB21094000806640CD
:1036200010B501E003F054FB1549B1F90000411E4B
:1036300009B2134A11800028F4D115E0072111487E
:1036400000F029FE01201049087003F041FB0F48EB
:10365000808AA0F57A7080B20D49C8808880488041
:103660000880084606F004FC0848B0F9140040F24F
:103670003A718842E2DA044800780028DED110BDB1
:10368000540200200014014053020020940800203E
:10369000DC03002003460621062212480188124856
:1036A0000288ABB1012B1BD13AB94EF6EE608142D4
:1036B00001D1002070470120FCE739B94EF6EE60D9
:1036C000824201D10120F5E70020F3E7AB20F1E7CA
:1036D00009B90020EEE70AB90120EBE7AB20E9E7E2
:1036E0000020E7E7000001080008010810B50424E5
:1036F0000B4800F039FC0446042C01D0204610BDD4
:103700000021074800F070FC0446042C01D020463C
:10371000F5E7044800F028FC04462046EFE70000E7
:10372000000001080008010810B505F0F5F904468D
:1037300001F086FC204610BD2DE9F84F074689466A
:103740000425DFF8D4A0354800904FF0000800248D
:1037500000264FF0000B0020FFF79CFF8046B8F1D9
:10376000010F04D1DFF8B4A02D4800900AE0B8F1B1
:10377000000F04D1DFF8A8A02848009002E0AB2099
:10378000BDE8F88F4EF6EE61504600F02DFC054680
:10379000042D01D02846F3E701F052FC4946384693
:1037A00000F08CFB0646042E01D03046E8E70024EA
:1037B0001DE01C4830F81400B84216D0194931F801
:1037C0001400194900F0D0F98346BBF1010F0CD069
:1037D000154A128891B2134A32F8140000F06EFBB9
:1037E0000646042E01D03046CAE7601C84B24B2C3A
:1037F000DFDB009800F0B8FB0546042D01D0284619
:10380000BEE70021504600F0EFFB0546042D01D035
:103810002846B5E72846B3E7FF0301080000010882
:1038200000080108B00100202400002010B509495B
:103830000888094900F098F9064948880649891C12
:1038400000F092F9034988880349091D00F08CF9BA
:1038500010BD0000B00100201405002038B5A549B6
:10386000488A694600F080F9BDF8000000B938BD0B
:10387000BDF90000FCF7F9FE04469F49FCF72FFD57
:103880009E4988629B49888A694600F06DF9BDF9B6
:103890000000FCF7EAFE04469949FCF720FD0146CA
:1038A0009648C1629349C88A694600F05DF9BDF93E
:1038B0000000FCF7DAFE04468F49FCF710FD0146D4
:1038C0008E4801638B49088B694600F04DF9BDF9BC
:1038D0000000FCF7CAFE04468749FCF700FD874953
:1038E00008678449488B694600F03EF9BDF900003D
:1038F000FCF7BBFE04468249FCF7F1FC01467F4819
:1039000041677C49888B694600F02EF9BDF90000BB
:10391000FCF7ABFE04467849FCF7E1FC014677482A
:1039200081677449C88B694600F01EF9BDF9000033
:10393000FCF79BFE04467049FCF7D1FC6F49C1F8C7
:10394000B8006C49088C694600F00EF9BDF900001A
:10395000FCF78BFE04466A49FCF7C1FC0146674848
:10396000C0F8BC106349488C694600F0FDF8BDF909
:103970000000FCF77AFE04465F49FCF7B0FC014604
:103980005E48C0F8C0105B49088D694600F0ECF84D
:10399000BDF90000FCF769FE04465749FCF79FFC9F
:1039A000584908605349488D694600F0DDF8BDF973
:1039B0000000FCF75AFE04465149FCF790FC5149BF
:1039C00088604C49888D694600F0CEF8BDF900004A
:1039D000FCF74BFE04464849FCF781FC4949486026
:1039E0004449C88D694600F0BFF8BDF90000FCF7F6
:1039F0003CFE04464049FCF772FC434908603D49DF
:103A0000088E694600F0B0F8BDF90000FCF72DFE05
:103A100004463B49FCF763FC3B4988603549488EC6
:103A2000694600F0A1F8BDF90000FCF71EFE04464F
:103A30003149FCF754FC344948602E49888E694668
:103A400000F092F8BDF90000FCF70FFE04462A4989
:103A5000FCF745FC2D4908602649C88E694600F0F0
:103A600083F8BDF90000FCF700FE04462449FCF78A
:103A700036FC264988601F49088F694600F074F8B3
:103A8000BDF90000FCF7F1FD04461B49FCF727FCDB
:103A90001E4948601749488F694600F065F8BDF92E
:103AA0000000FCF7E2FD04461349FCF718FC184936
:103AB00008601049888F694600F056F8BDF900008B
:103AC000FCF7D3FD04460E49FCF709FC1049886059
:103AD0000849C88F694600F047F8BDF90000FCF7B7
:103AE000C4FD04460449FCF7FAFB0949486000BFDD
:103AF000BDE60000B00100200000C842600B0020BD
:103B000000007A448C0C0020600C0020B00D0020D6
:103B1000980C002010B51249C888124900F024F80A
:103B20000F4908890F49891C00F01EF80C49488983
:103B30000C49091D00F018F8094988890949891DAF
:103B400000F012F80649C8890649083100F00CF85F
:103B50000349088A03490A3100F006F810BD000045
:103B6000B0010020B00700202DE9F04706460F46BF
:103B7000002545F255584FF00109124CA24600208D
:103B8000FFF788FD0546AB2D01D1BDE8F0870D4854
:103B900000EBC52A0C480068841E0BE0B4F80080D6
:103BA000B04506D134F8020C00B238804FF000095D
:103BB00004E0241F0AF102008442EFD800BF484607
:103BC000E3E70000000001082800002010B50B4AC0
:103BD000B2F920100A4A108800F0B4F9074AB2F985
:103BE0002210074A508800F0ADF9044AB2F92410B7
:103BF000034A908800F0A6F910BD0000F4040020EC
:103C0000B001002070B59948C07A00287ED000200D
:103C10009649C8729649886A9649FCF72EFB054674
:103C2000FCF782FD84B29449488A21B200F08AF9F7
:103C30008F49C86A9149FCF720FB0546FCF774FDE3
:103C400084B28D49888A21B200F07CF98849086BDA
:103C50008849FCF712FB0546FCF766FD84B28649ED
:103C6000C88A21B200F06EF98149086F8149FCF7DA
:103C700004FB0546FCF758FD84B27F49088B21B24E
:103C800000F060F97A49486F7C49FCF7F6FA05467E
:103C9000FCF74AFD84B27849488B21B200F052F912
:103CA0007349886F7349FCF7E8FA0546FCF73CFD59
:103CB00084B27149888B21B200F044F96C49D1F883
:103CC000B8006C49FCF7D9FA0546FCF72DFD84B223
:103CD0006949C88B21B200F035F96549D1F8BC00BB
:103CE0006649FCF7CAFA0546FCF71EFD84B2624934
:103CF000088C21B200F026F95D49D1F8C0005D4979
:103D0000FCF7BBFA0546FCF70FFD00E0ADE084B21E
:103D10005949488C21B200F015F9594908685549AC
:103D2000FCF7ABFA0546FCF7FFFC84B25249088D5C
:103D300021B200F007F9524988685049FCF79DFA12
:103D40000546FCF7F1FC84B24B49488D21B200F0E6
:103D5000F9F84B4948684749FCF78FFA0546FCF7E4
:103D6000E3FC84B24449888D21B200F0EBF8454968
:103D700008684049FCF781FA0546FCF7D5FC84B297
:103D80003D49C88D21B200F0DDF83E4988683B49C5
:103D9000FCF773FA0546FCF7C7FC84B23649088E77
:103DA00021B200F0CFF8374948683249FCF765FA8C
:103DB0000546FCF7B9FC84B22F49488E21B200F0C9
:103DC000C1F8314908682B49FCF757FA0546FCF75A
:103DD000ABFC84B22849888E21B200F0B3F82A499E
:103DE00088682649FCF749FA0546FCF79DFC84B231
:103DF0002149C88E21B200F0A5F8234948681D4921
:103E0000FCF73BFA0546FCF78FFC84B21A49088F91
:103E100021B200F097F81D4908681649FCF72DFA01
:103E20000546FCF781FC84B21349488F21B200F0AB
:103E300089F8164988681149FCF71FFA0546FCF70E
:103E400073FC84B20C49888F21B200F07BF80F49D3
:103E500048680849FCF711FA0546FCF765FC84B28E
:103E60000549C88F21B200F06DF870BD200900200F
:103E7000600B00200000C842B001002000007A441E
:103E80008C0C0020600C0020B00D0020980C00204D
:103E900010B500240BE0074A126832F91410E21C36
:103EA000054B33F8120000F04DF8601CC4B2062C2C
:103EB000F1DB10BD40010020B00100202DE9F041F0
:103EC00004460F4604250026DFF86C800120FFF72A
:103ED000E1FB0646AB2E01D1BDE8F081701C17490D
:103EE00001EBC02821E0164800680068401CB8B902
:103EF00039461348006800F077F80546042D01D0D4
:103F00002846E9E721460E480068801C00F06CF85E
:103F100005460B480068001D094908602846DBE794
:103F200007480068001D06490860054800684045CC
:103F3000D9D38020D0E70000FF070108FEFF00086A
:103F40002800002070B506460C460025A1B2304678
:103F5000FFF7B4FF0546802D04D1A1B23046FFF72C
:103F6000EBFB0546284670BD30B5044604254FF4EA
:103F7000302000F065F80546042D17D10C48006983
:103F800040F002000A49086108464461006940F0B7
:103F9000400008614FF4302000F052F80546044814
:103FA000006941F6FD71084001490861284630BDAD
:103FB0000020024004200B49C96801F0010109B149
:103FC00001200EE00749C96801F0040109B102208F
:103FD00007E00449C96801F0100109B1032000E0BD
:103FE000042070470020024070B504460D460426A8
:103FF000F00200F025F80646042E11D109480069A8
:1040000040F00100074908612580F00200F018F82F
:1040100006460448006941F6FE71084001490861FE
:10402000304670BD00200240024803494860034802
:10403000486070472301674500200240AB89EFCDFF
:1040400000B502460423FFF7B5FF034603E0FFF780
:10405000B1FF0346521E012B01D1002AF7D102B94C
:104060000523184600BD000010B51A48407910B16C
:104070000020194908701748407910B901201649E5
:1040800008701448C07910B1022013490870114813
:10409000807A10B10320104908700E48007AA8B148
:1040A0000C48007A012804D0022806D003280CD13D
:1040B00007E004200849087007E005200649087059
:1040C00003E006200449087000BF00BF01F048F873
:1040D00010BD000020090020140000202DE9F0414F
:1040E000024600250026002000230024002791F826
:1040F00003C00CF00F0591F803C00CF0100CBCF1DC
:10410000000F03D091F802C04CEA050591F800C0F9
:10411000BCF1000F31D0146800202BE04FF0010CEF
:104120000CFA00F3B1F800C00CEA03069E4220D15D
:1041300083004FF00F0C0CFA03F7BC4305FA03FCA5
:104140004CEA040491F803C0BCF1280F06D14FF0EB
:10415000010C0CFA00FCC2F814C00AE091F803C08C
:10416000BCF1480F05D14FF0010C0CFA00FCC2F86D
:1041700010C0401C0828D1D31460B1F800C0BCF1B5
:10418000FF0F34DD546800202EE000F1080C4FF0E2
:10419000010808FA0CF3B1F800C00CEA03069E42CD
:1041A00021D183004FF00F0C0CFA03F7BC4305FA42
:1041B00003FC4CEA040491F803C0BCF1280F05D1BC
:1041C00000F1080C08FA0CF8C2F8148091F803C04A
:1041D000BCF1480F07D100F1080C4FF0010808FAB4
:1041E0000CF8C2F81080401C0828CED35460BDE8FB
:1041F000F0810000F0B50A460023002400210025CC
:1042000000F00046B6F1004F02D11D4EF16901E009
:104210001B4E7168C0F3034583B200F44016B6F537
:10422000401F08D121F07061154E766826F0706647
:10423000134F7E6012E000F48016B6F5801F06D1A1
:10424000032606FA05F4A14341F0706106E0460D2D
:10425000360103FA06F6B14341F0706122B1460D12
:10426000360103FA06F6314300F00046B6F1004F7E
:1042700002D1034EF16101E0014E7160F0BD00001A
:10428000000001400246002093680B400BB1012062
:1042900000E00020704741617047016170470000F5
:1042A00010B513480078012802D0022817D10BE07E
:1042B0001048007808B101F00BFA582001F0ECFB2F
:1042C00002200B49087011E001F07AFB482001F050
:1042D000E3FB0120074908700549087006E001204A
:1042E0000349087000200349087000BF00BF10BDDB
:1042F000F6000020F70000202DE9F04707460C46A5
:1043000015461E463046FCF7B9F9814649463846FF
:10431000FBF7E5FF8046FCF7EEF901B21148A0F883
:1043200054103046FCF7AAF9814649462046FBF76F
:10433000D6FF8046FCF7DFF901B20A48A0F8561014
:104340003046FCF79BF9814649462846FBF7C7FFF4
:104350008046FCF7D0F901B20248A0F85810BDE839
:10436000F0870000F40400202DE9F04F87B000250D
:104370000020049005900690019002900390002682
:104380000027804680490870F6E0C82D7EDA01F0EB
:1043900021F97E48407A7D49097A40EA012000B23D
:1043A0007B4988867948C07A7849897A40EA012031
:1043B00001B27748C1867548407B7449097B40EA61
:1043C000012001B2724801870146B1F93400FCF7BF
:1043D0004CF981460199FBF7F8FE01906C49B1F95F
:1043E0003600FCF742F981460299FBF7EEFE029097
:1043F0006749B1F93800FCF738F981460399FBF7B2
:10440000E4FE03906249B1F93400FCF72EF98346CB
:104410003146FBF72FFF82460021FCF701FA0CD250
:104420005B49B1F93400FCF720F9834686F0004A75
:1044300059465046FBF71BFF08E05549B1F93400D7
:10444000FCF713F982463146FBF714FF81460499C5
:10445000FBF7BBFE04904E49B1F93600FCF705F9B5
:1044600083463946FBF706FF82460021FCF7D8F960
:104470000DD24749B1F93600FCF7F7F8834687F0CB
:10448000004A59465046FBF7F2FE09E049E0404930
:10449000B1F93600FCF7E9F882463946FBF7EAFE47
:1044A00081460599FBF791FE05903949B1F938002D
:1044B000FCF7DBF883464146FBF7DCFE8246002131
:1044C000FCF7AEF90CD23249B1F93800FCF7CDF85F
:1044D000834688F0004A59465046FBF7C8FE08E07C
:1044E0002B49B1F93800FCF7C0F882464146FBF78A
:1044F000C1FE81460699FBF768FE06902449B1F992
:104500003400FCF7B2F806462149B1F93600FCF751
:10451000ACF807461E49B1F93800FCF7A6F880460A
:1045200028E01C490498FCF785F909D91949059830
:10453000FCF780F904D917490698FCF77BF90ED8E7
:104540000025002408E0002004A941F8240001A966
:1045500041F82400601CC4B2032CF4DB0AE0C82339
:1045600001A807C8FFF7C8FE01200749087000200E
:1045700009498872681CC5B20348007800283FF4D6
:1045800004AF07B0BDE8F08F55000020E404002020
:10459000F404002000002F44200900202DE9FF41F1
:1045A0000546002602AB062203213C2000F0F0FB6A
:1045B000594800680A2190FBF1F057490968081A28
:1045C000554908609DF809009DF8081040EA01204F
:1045D00000B25149096808444F490860084600681C
:1045E0000A2190FBF1F000B2ADF800004A484068A3
:1045F00090FBF1F048494968081A474948609DF81E
:104600000D009DF80C1040EA012000B242494968B3
:10461000084441494860084640680A2190FBF1F08F
:1046200000B2ADF802003C48806890FBF1F03A49D6
:104630008968081A384988609DF80B009DF80A10AF
:1046400040EA012000B23449896808443249886050
:10465000084680680A2190FBF1F000B2ADF8040032
:10466000BDF804002D4908809DF80A0048809DF897
:104670000B0088802A48007A40B10120294908703F
:1046800000202749C870684601F018FA25480078CC
:1046900008B3002023490870002415E02248006870
:1046A00030F91400002805DA1F48006830F91400BA
:1046B000404203E01C48006830F91400142801DA75
:1046C000701CC6B2601CC4B2062CE7DB022E02DBF3
:1046D00001201349C87000241AE01349096801EB4E
:1046E0004401B1F90610104A126832F914208F18EB
:1046F00007EBD7713DF91420A2EB6100FBF7B5FF82
:104700008046FBF7F8FF00B225F81400601CC4B225
:10471000032CE2DBBDE8FF81C8070020BC070020B6
:1047200020090020440100204001002000BFFEE7D6
:104730002DE9FC5F83468A46FE48007810B10128C7
:104740007ED109E0FC490869FC49FCF773F802D204
:104750000120F849087077E2F948006800F0F2FD9E
:10476000F848C07C022806D1F7480078012802D119
:10477000F648007850B1F348C07C03281FD1F448B4
:10478000007801281BD1F1480078C0B9EC480068D6
:10479000F04908600020F0490860F04908600860AE
:1047A000EF490860EF4948600860C8600220E649A8
:1047B0000870E74908700120E44908700AE0E14800
:1047C000C07C012806D10020DF490870E04908704C
:1047D000DE49087000215046FCF722F801D2002083
:1047E00007E0E1495046FCF725F801D2DE4800E039
:1047F0005046DE490860D2480168DC480068FBF793
:1048000036FD8046DA495846FBF737FD8146494672
:104810004FF07E50FBF763FD07464FF07E51FBF7EC
:10482000D4FC064631464FF07E50FBF758FD054656
:104830004146FBF722FD0446C1480168204600E0DE
:1048400001E2FBF7C2FCBE49086008460068C9499E
:104850000860B94AD168C84A5068FBF70EFD0746A0
:10486000B54A9168C44A1068FBF707FD8046B24913
:10487000B1F92400FBF7F9FE8146AF4801694846CB
:10488000FBF7F8FC0446BC4881682046FBF7F5FCC2
:1048900006464146FBF799FC05463946FBF795FC71
:1048A000B6490860B648B74B3222B7490090B348C2
:1048B000006801F081FB4FF08C41B1480068FBF7C4
:1048C0000EFD0446B149FBF7D8FCB1490860084623
:1048D0000068FBF710FF041E01DB204600E0604289
:1048E000322802DA0020AA490860A9480068A149D4
:1048F0008860A74801685846FBF7BFFC0446964805
:1049000001682046FBF761FC93490860A1480078E4
:10491000012805D1A04803F0A3FE02209D4908709C
:104920009E48007801282AD19D48FEF7CDFA9D487F
:1049300000689D4988629D4801689A480068FBF7B5
:1049400096FC9B4908609748006898490860984819
:104950000068FBF735FF8046964A974BFBF7A4FDAE
:104960000646964A964BFBF711FE0446FBF73BFFC3
:10497000944908607F49C8620220884908707148DC
:10498000C07C022823D190480068904908600846FE
:104990000068FBF715FF0646884A8D4BFBF784FD40
:1049A00004460D466C480068FBF70AFF0646894A34
:1049B000894BFBF779FD804622462B46FBF7CDFC61
:1049C000CDE90001FBF70FFF6349086026E05D4871
:1049D000C07C032822D17B4800687C4908600846D7
:1049E0000068FBF7EDFE0646744A794BFBF75CFD69
:1049F0008046894658480068FBF7E2FE0646754A3D
:104A0000754BFBF751FD42464B46CDE90001FBF7E4
:104A1000A4FC0446FBF7E7FE4F4908606B480068BA
:104A20005449C8604C48006808614D4801686748AF
:104A30000068FBF71CFC054668495846FBF71DFC5F
:104A400006462946FBF719FC0446444801682046FF
:104A5000FBF7BBFB41490860614940480068FBF730
:104A6000DFFE01D25E4809E05E493C480068FBF782
:104A7000E1FE01D25B4801E0384800683749086030
:104A8000084600683B494861334801684F48006860
:104A9000FBF7EDFB804654495846FBF7EEFB814699
:104AA00049464FF07E50FBF71AFC07464FF07E5107
:104AB000FBF78BFB064631464FF07E50FBF70FFCB1
:104AC00005464146FBF7D9FB0446234801682046CA
:104AD000FBF77BFB20490860204801681E480068FE
:104AE000FBF773FB1E490860224988611548C07CAA
:104AF000032814D129480078022807D1FF2027492C
:104B000008700F4801682648FEF7A4F82D4803688E
:104B1000364802680F480168584605F0ADF8094864
:104B2000C07C022876D128480368314802680948C9
:104B3000016860E068040020F404002000C0DA4549
:104B40006C040020200900201004002038040020FC
:104B5000440400200C040020800400207C04002079
:104B60002C0400206C0C002000002F447004002056
:104B7000C3F5C8402C0E0020540A00207404002005
:104B80007804002058040020D00C00200020194692
:104B900034040020440000209A99193DF0000020C0
:104BA0000AD7A33C3C040020600E0020E80000204F
:104BB000EC0000209A9999999999D93F7B14AE47B6
:104BC000E17A943F600400201C040020840400204B
:104BD000E17A843FAE47E17A14AEEF3FCDCCCC3ED4
:104BE0000000FAC30000FA439CC4A03E5004002019
:104BF000280400200EE0584605F03EF814480078DE
:104C0000022807D113480168134803F0E7FBFF208F
:104C10000F4908701148C07C022807D00F48C07C9B
:104C2000032803D00D48C07C062804D10C48006935
:104C30000C49086002E00B48C0F800A00A48006870
:104C40000A49086000E000BF00BFBDE8FC9F00000B
:104C5000440000206C0400209A99193D200900208E
:104C60006C0C00200404002018040020600E0020BA
:104C700000B54FF480600C49086000F065F94FF40E
:104C800000600949086000F05FF94FF48060064950
:104C9000091F086000F058F94FF48060024908606D
:104CA00000F052F900BD0000140C014008B50121CC
:104CB000082001F0F3FD4FF48060ADF80000032000
:104CC0008DF8020014208DF8030069460A48FFF7AA
:104CD00005FA4FF40060ADF8000003208DF80200E3
:104CE00014208DF8030069460348FFF7F7F940F6F2
:104CF000FF7004F052FF08BD000C014000B54FF4F6
:104D000080600C49086000F01FF94FF40060094909
:104D1000091F086000F018F94FF480600549091F69
:104D2000086000F011F94FF480600249086000F05B
:104D30000BF900BD140C014000B5082100200A0247
:104D4000124B1A6016E04206100E4FF480620F4BB1
:104D50001B1D1A6000F0F8F84FF480620B4B1A60CC
:104D600000F0F2F8094A083A126802F400620AB147
:104D700040F001000A00A1F10103D9B2E3D14FF4E0
:104D80008062024B1B1D1A6000BD0000100C014028
:104D90002DE9F04107460E461546984600F058F8B2
:104DA000384600F027F800F0A1F8304600F022F86D
:104DB00000F09CF800F04CF8791CC8B200F01AF82A
:104DC00000F094F800240DE0FFF7B6FF08F80400A7
:104DD000681EA04202D1FFF791FF01E0FFF748FFF4
:104DE000601CC4B2AC42EFDB00F062F800F0ACF83B
:104DF000BDE8F08100B508211DE04FF48062134B3F
:104E00001A6000F0A1F800F080022AB14FF40062AD
:104E10000E4B1B1F1A6003E04FF400620B4B1A602D
:104E20004206100E00F090F84FF48062074B1B1FF3
:104E30001A6000F089F80A00A1F10103D9B2DCD1AF
:104E40004FF48062014B1A6000BD0000140C014059
:104E500000B54FF40060154908604010086000F08C
:104E600073F812480838006808B9012000E00020F3
:104E700000F4006008B1002000BD4FF400600B4951
:104E8000091D086000F060F808480838006800F460
:104E9000006008B10020EFE74FF400600349091DEE
:104EA000086000F051F80120E6E70000100C014016
:104EB00000B54FF480600C49086000F045F84FF4ED
:104EC00000600949086000F03FF84FF4806006492F
:104ED000091F086000F038F84FF400600249091F0C
:104EE000086000F031F800BD140C014000B54FF42B
:104EF00080601449086000F027F84FF40060114901
:104F0000091F086000F020F84FF480600D49091F68
:104F1000086000F019F80B480C38006800F40060D5
:104F200038B14FF480600749086000F00DF80020A8
:104F300000BD4FF480600349086000F005F80120CF
:104F4000F6E70000140C014000BF70472DE9FF5F39
:104F500088B092469946DDF85CB0ABF1010004B22E
:104F600008E0601E0AEBC00103C90AEBC40203C2D9
:104F7000601E04B2002CF4DCDDE90801CAE900017E
:104F800000252E46002418E0169800EBC40003C844
:104F9000CDE902010AEBC40003C8CDE90001DDE957
:104FA0000223FBF781FA2A463346CDE90401FBF7D9
:104FB000D4F905460E46601C04B25C45E4DB199842
:104FC000401E04B208E0601E09EBC00103C909EBF2
:104FD000C40203C2601E04B2002CF4DC0027B846F1
:104FE000012418E0189800EBC40103C9CDE90201BF
:104FF00009EBC40003C8CDE90001DDE90223FBF79A
:1050000053FA3A464346CDE90401FBF7A6F90746B1
:105010008846601C04B219988442E3DB3A46434652
:1050200028463146FBF73AFAC9E90001D9E90001FF
:10503000CDE90601DDE906010CB0BDE8F09F0000F6
:1050400070B5042600240120FEF724FB0446AB2C97
:1050500006D1124800EBC42011490860AB2070BD96
:105060000E4800EBC4200E490860601C0B49891EE5
:1050700001EBC0250CE00A4800680068401C10B92C
:1050800004263046EBE706480068001D0449086026
:1050900003480068A842EED38020E0E70000010842
:1050A0002800002010B57521D02001F0B3FE044681
:1050B0000CB9002010BD00226B21D02001F0D2FEDF
:1050C00007221921D02001F0CDFE03221A21D02081
:1050D00001F0C8FE10221B21D02001F0C3FE0922DE
:1050E0001C21D02001F0BEFE02223721D02001F089
:1050F000B9FE00226A21D02001F0B4FE0120D9E7D8
:1051000010B51548007800F0010020B101211348C6
:10511000FFF7C1F803E001211048FFF7BEF80E4881
:105120000078C0F3400020B102210C48FFF7B3F82B
:1051300003E002210948FFF7B0F807480078C0F300
:10514000800020B104210548FFF7A5F803E0042101
:105150000248FFF7A2F810BD18000020001401401B
:1051600010B52F480078072855D2DFE800F0042258
:10517000405044484C002A484088401C80B228498E
:105180004880782801DB00204880254840880A288C
:1051900007DB23484088142807DD214840881E2863
:1051A00003DA06201F49087002E000201D4908703C
:1051B00031E01B484088401C80B2194948803C2897
:1051C00001DB0020488016484088142803DC0120B9
:1051D000144908700AE012484088282803DC02209D
:1051E0001049087002E004200E49087013E0042002
:1051F0000C4908700FE001200A4908700BE00220FA
:105200000849087007E004200649087003E00120FF
:105210000449087000BF00BFFFF772FF10BD000017
:10522000140000201800002008B50121202001F002
:1052300035FB0121402001F031FB0121084601F03E
:105240002DFB01211248FEF7D5FF01211148FEF781
:10525000D1FF0720ADF8000010208DF803000320D7
:105260008DF8020069460C48FEF738FF07210A480E
:10527000FFF713F848F27840ADF800006946074898
:10528000FEF72CFF48F278410448FFF706F808BD06
:1052900000043000000230000014014000180140FA
:1052A00010B507211948FEF7F6FF4FF4617004F0BE
:1052B00074FC07211548FEF7F0FF4FF47A5004F014
:1052C0006CFC07211148FEF7E6FF4FF4617004F013
:1052D00064FC07210D48FEF7E0FF4FF47A5004F01C
:1052E0005CFC07210948FEF7D6FF4FF4617004F01B
:1052F00054FC07210548FEF7D0FF4FF47A5004F024
:105300004CFC07210148FEF7C6FF10BD0014014008
:105310002DE9F04704460D46164631462846FAF771
:10532000ACFF804631464FF07E50FAF7A0FF814631
:105330002146FAF7A2FF07464146FAF746FFBDE8C5
:10534000F08700002E49C97C02291ED12D49097819
:10535000D9B92D4909682D4A11602B498968916096
:105360002949496851602A4909682A4A116000217F
:10537000294A1160294AD160294A1160294AD1601D
:10538000516001211F4A11700AE01D49C97C0129A1
:1053900003D01B49C97C032902D10021194A11708D
:1053A0001749C97C03291ED11F490978D9B91F495A
:1053B0000968164A11601D49896891601B4949684E
:1053C00051601B490968134A11600021124A11609B
:1053D000184A1160184A1160184AD16051600121C1
:1053E000114A11700AE00649C97C012903D0044919
:1053F000C97C022902D100210B4A117070470000BC
:1054000020090020100400208C0C0020800C0020BB
:105410002404002018040020080400206C0C002044
:105420001C0400204C0C002044040020980C002098
:10543000480400205C040020600400209C0D002033
:1054400010B500F0C7F85C4840785B49097840EA3D
:1054500001205A49098C401A00B258490880564820
:10546000C0785549897840EA01215448408C081A8F
:1054700000B252494880504840794F49097940EA82
:10548000012000B24D4988804B48407A4A49097A48
:1054900040EA012000B2494988864748C07A464917
:1054A000897A40EA012001B24448C1864248407BE3
:1054B0004149097B40EA012001B240480187014689
:1054C000B1F93420B1F95410501AFBF7CEF83B492A
:1054D000C865B1F93620B1F95610501AFBF7C5F876
:1054E0000146364801660146B1F93820B1F9581035
:1054F000501AFBF7BAF80146304841663048C07987
:10550000002852D02F48007868B900202B49088421
:1055100000212A484184818400202B4908602B49BE
:1055200008602B4908602548B0F900002649096841
:105530000844254908602148B0F902002349096858
:105540000844224908601D48B0F904002049096850
:1055500008441F4908601B480078401C194908701E
:1055600008460078C82820D117480068097890FBC1
:10557000F1F000B211490884144800681149097813
:1055800090FBF1F001B20D484184114800680D49CB
:10559000097890FBF1F001B20848818400200949A4
:1055A00008700749C871FEF711FB0548807A08B1F9
:1055B000FEF7DAFE10BD0000E4040020F404002031
:1055C0002009002054000020480000204C0000204A
:1055D0005000002010B53B21D02001F01BFC2249D7
:1055E00008703C21D02001F015FC1F4948703D2176
:1055F000D02001F00FFC1C4988703E21D02001F022
:1056000009FC1949C8703F21D02001F003FC16495C
:1056100008714021D02001F0FDFB1349487143215E
:10562000D02001F0F7FB104908724421D02001F08E
:10563000F1FB0D4948724521D02001F0EBFB0A49EE
:1056400088724621D02001F0E5FB0749C872472146
:10565000D02001F0DFFB044908734821D02001F07D
:10566000D9FB0149487310BDE40400202DE9F04145
:105670000025FFF7EDFBEE20FFF7BCFBFFF736FC44
:105680000020FFF7B7FBFFF731FCFFF711FCFFF736
:10569000DFFBEF20FFF7AEFBFFF728FCFFF74CFB2B
:1056A0000646FFF7E5FAFFF747FB0446FFF7E0FA87
:1056B000FFF742FB0746FFF721FBFFF7F9FBC6EBBD
:1056C000064000EB0420C5192846BDE8F081000023
:1056D0002DE9F04F87B000240025DFF87482FFF732
:1056E000C5FF9C490860FFF72FFC9B480069002319
:1056F0009A49D1E90021A0FB026B03FB02B201FB36
:10570000002180223046FAF72FFD934A12891204B5
:1057100010EB020941F100014846FAF7E0FF904A18
:1057200003C28D48C06800238C4AD2E9001CA0FB4C
:10573000016903FB019100FB0C114FF480723046AC
:10574000FAF712FD844A5268D203801841F1000131
:10575000844A03C28448D0E900204FF4FA63D21A85
:1057600070F1000049D28048D0E90010A1FB012768
:1057700000FB017701FB00711046FAF784FF7B49BB
:10578000086008460068FBF71BF881460022784B4A
:10579000FAF78AFE0646FAF7FAFF76490860734878
:1057A0000068FBF70DF806460022734BFAF77CFE03
:1057B0008146FAF7ECFF714908606B48D0E9003187
:1057C0006F480068181A61F10001674A03C269480E
:1057D0000068FAF777FF064661480CC83046FAF7CA
:1057E00060FE5F4A03C25F48D0E900316348006849
:1057F000181A61F100015B4A03C256480068002391
:105800005849D1E90021A0FB026B03FB02B201FB66
:1058100000214FF400123046FAF7A6FCCDE9000152
:10582000FAF75DFF81464E480CC84846FAF736FE47
:105830000022544BCDE90201FAF7A8FECDE904019C
:10584000FAF7A5FF504908605049514A127841F8CB
:1058500022004F480078401C4D49087008460078E7
:10586000142801D100200870002016E0474951F8A3
:105870002010A94203D9454951F8205007E0434977
:1058800051F82010414502D2404951F820803F494B
:1058900051F820100C44411CC8B21428E6DB601BF0
:1058A000A0EB08001221B0FBF1F03A49086008466D
:1058B00000683949884202D9384836490860354875
:1058C0000068FAF7DBFE0746354801683846FAF704
:1058D000D1FC06463349FAF7D0FC33490860334916
:1058E00031480068FAF79CFF02D231482E4908601F
:1058F00025480068FAF7C2FE07462948016838467D
:10590000FAF7B8FC06462749FAF7B7FC29490860B8
:10591000274928480068FAF783FF02D2244825491E
:10592000086025480088B0F5967F0ADA224800888A
:10593000401C2149088017480068FAF79FFE184963
:10594000086001201D49087007B0BDE8F08F000015
:10595000400D030088000020600500206800002042
:10596000580000208000002070000020600000200F
:1059700000000440A40000200000F43FA800002024
:105980009C0000200000E040980000207C050020E2
:10599000F200002090000020F0490200A0860100E3
:1059A000640400200000AA423C040020000048C318
:1059B0000000C8C2E4000020F4000020F000002035
:1059C0002DE9F04700240025DFF8B080FFF74EFEF8
:1059D0002B492C4A127841F822002A480078401CB2
:1059E0002849087008460078642801D10020087012
:1059F000002016E0224951F82010A94203D920497D
:105A000051F8205007E01E4951F82010414502D2BC
:105A10001B4951F820801A4951F820100C44411CB0
:105A2000C8B26428E6DB601BA0EB08006221B0FB73
:105A3000F1F015490860154840690968A1EB00209C
:105A40000021134A03C21148806900231049D1E99B
:105A5000002CA0FB026903FB029200FB0C214FF417
:105A600000023046FAF780FB4FF4FA63C01841F1A8
:105A70000001084A03C2BDE8F087000000C2EB0B3A
:105A8000CC050020F10000208C00002060050020E3
:105A9000680000207000002010B50446FFF7D8F918
:105AA000EE20FFF7A7F9FFF721FA2046FFF7A2F94A
:105AB000FFF71CFAFFF7FCF910BD00002DE9FF5FAE
:105AC00081469448007898B1002092490870924924
:105AD00008609249086092490860002406E00020AE
